:100000001200391201AB780C1202727D017E017868
:10001000007A0A7902ED2EF809B90A0312023BB9F7
:100020000C0612003012023BEEFDE8FEDAE780FE1D
:10003000740275F00012020522758780758920759B
:100040008841758DFD75985022D083D082E493B499
:1000500000028006120068A380F37401731200701E
:10006000120068EA12006822C299F5993099FD22BF
:10007000FA540F24F650022407243ACAC4540F2419
:10008000F650022407243A22048322C0F9A4B0992E
:100090009282F880908883C6A1868E75F06484F57C
:1000A00031E5F075F00A84F53285F033E53124301E
:1000B000120068E5322430120068E5332430120063
:1000C000682224301200682275F00A84F53285F027
:1000D00033E5322430120068E53324301200682200
:1000E0001200F21200FCC4F5F01200F21200FC45FE
:1000F000F0223098FDE599547FC2982224D0501701
:10010000C324F64003240A22C2E5C324F95008C3DD
:1001100024FA4003540F22227C0879FAD9FEDCFA33
:100120002214C0E074A6040000000000000000706B
:10013000F5000000D0E0D5E0E974A604000000005E
:100140000000000070F500000000002275F06484DB
:100150002430F530E5F075F00A842430F531E5F00F
:100160002430F5322275F00A842430F530E5F0248D
:1001700030F5312212004970726573696F6E652027
:10018000756E61207465636C6120706172612063BB
:100190006F6E74696E756172001201A01200F22216
:1001A000740D120068740A120068221201B2120162
:1001B000D122C293C297C296D295C294D292C292D1
:1001C0001201E1D292C292D297D292C2921201E16E
:1001D00022C293C291C29278065172780E120272B4
:1001E000227832D8FE227D057B64DBFEDDFA2260B8
:1001F000087810517215E080F62260087814517268
:1002000015E080F62215E07006E5F024808004E514
:10021000F024C0F8517222C0F075F008A4D0F02587
:10022000F02440F85172226007781851721480F758
:10023000226007781C51721480F722C292D293C2B6
:1002400091C0E0E8A2E49294A2E59295A2E692968B
:10025000A2E79297D292C292A2E09294A2E19295E2
:10026000A2E29296A2E39297D292C2921201E1D0B8
:10027000E022C292C293C291C0E0E8A2E49294A2AA
:10028000E59295A2E69296A2E79297D292C292A2A6
:10029000E09294A2E19295A2E29296A2E39297D282
:1002A00092C2921201E1D0E022D083D082E493B4D2
:1002B00000028006F8513BA341AD740173C0E074A5
:1002C000910451E351E351E351E351E351E351E32D
:1002D00051E351E3000000000070E67433D5E0FD07
:1002E000D0E022C0E074A60400000000000000007E
:1002F00070F500D0E022783012023B7810120272C2
:10030000780C1202721202BD783112023B78101280
:100310000272780C1202721202BD783212023B781D
:1003200010120272780C1202721202BD783312029D
:100330003B7810120272780C1202721202BD7834ED
:1003400012023B7810120272780C1202721202BD75
:10035000783512023B7810120272780C1202721277
:1003600002BD783612023B7810120272780C12022B
:10037000721202BD783712023B7810120272780CAA
:100380001202721202BD783812023B781012027209
:10039000780C1202721202BD783912023B780C12EC
:0603A00002721202BD22F0
:00000001FF
