:0200000080146A
:0300030002003CBC
:1000130002006B12011FD288D2A8D2B2D28AD2AA0E
:10002300D2B3D2AF120291780C1203581202FD0F11
:100033000F0F0F0F0F0F2080FE12010D12038F20E1
:1000430020202020202020202020202020202000CD
:1000530012010D12038F3220736F6C657320202001
:10006300202020202020003212010D12038F202097
:1000730020202020202020202020202020200012AB
:10008300010D12038F507265706172616E646F2E81
:100093002E2E2E2020007F1012011612038F08002F
:1000A3001201FEEF14FF70F31201FE800012010D26
:1000B30012038F20202020202020202020202020F9
:1000C3002020200012011612038F20202020202040
:1000D300202020202020202020200012010D1203A8
:1000E3008F4C4953544F21212020202020202020B1
:1000F300200012011612038F5265636F6A61207329
:1001030075206361666520200032740175F000126A
:1001130002EB22740275F0001202EB2275878075E0
:100123008920758841758DFD75985022D083D082C2
:10013300E493B40002800612014EA380F3740173AA
:1001430012015612014EEA12014E22C299F599305C
:1001530099FD22FA540F24F650022407243ACAC404
:10016300540F24F650022407243A22048322C0F9B0
:10017300A4B0999282F880908883C6A1868E75F088
:100183006484F531E5F075F00A84F53285F033E5E2
:1001930031243012014EE532243012014EE533246E
:1001A3003012014E22243012014E2275F00A84F5DA
:1001B3003285F033E532243012014EE53324301218
:1001C300014E221201D81201E2C4F5F01201D81235
:1001D30001E245F0223098FDE599547FC29822242C
:1001E300D05017C324F64003240A22C2E5C324F9DE
:1001F3005008C324FA4003540F22227C0879FAD909
:10020300FEDCFA2214C0E074A60400000000000023
:10021300000070F5000000D0E0D5E0E974A604000A
:100223000000000000000070F500000000002275CF
:10023300F064842430F530E5F075F00A842430F559
:1002430031E5F02430F5322275F00A842430F5309C
:10025300E5F02430F5312212012F70726573696F56
:100263006E6520756E61207465636C6120706172C8
:100273006120636F6E74696E75617200120286127B
:1002830001D822740D12014E740A12014E22120279
:10029300981202B722C293C297C296D295C294D241
:1002A30092C2921202C7D292C292D297D292C292B1
:1002B3001202C722C293C291C29278067158780E75
:1002C300120358227832D8FE227D057B64DBFEDDE3
:1002D300FA2260087810715815E080F622600878D9
:1002E30014715815E080F62215E07006E5F02480BD
:1002F3008004E5F024C0F8715822C0F075F008A41A
:10030300D0F025F02440F87158226007781871580E
:100313001480F7226007781C71581480F722C29268
:10032300D293C291C0E0E8A2E49294A2E59295A28E
:10033300E69296A2E79297D292C292A2E09294A2F8
:10034300E19295A2E29296A2E39297D292C292127E
:1003530002C7D0E022C292C293C291C0E0E8A2E4F5
:100363009294A2E59295A2E69296A2E79297D292F0
:10037300C292A2E09294A2E19295A2E29296A2E3A3
:100383009297D292C2921202C7D0E022D083D08237
:10039300E493B400028006F87121A361937401739E
:1003A300C0E074910471C971C971C971C971C9710E
:1003B300C971C971C971C9000000000070E67433C6
:1003C300D5E0FDD0E022C0E074A6040000000000E8
:1003D30000000070F500D0E022783012032178107D
:1003E300120358780C1203581203A3783112032115
:1003F3007810120358780C1203581203A3783212A0
:1004030003217810120358780C1203581203A378AF
:10041300331203217810120358780C120358120375
:10042300A378341203217810120358780C1203585E
:100433001203A378351203217810120358780C1293
:1004430003581203A3783612032178101203587845
:100453000C1203581203A3783712032178101203E6
:1004630058780C1203581203A3783812032178101A
:10047300120358780C1203581203A378391203217C
:09048300780C1203581203A322A5
:00000001FF
